:100000000C9408010C9425010C9425010C942501F5
:100010000C9425010C9425010C9425010C942501C8
:100020000C9425010C9425010C9452030C948D031F
:100030000C9425010C9425010C9425010C942501A8
:100040000C9425010C9425010C9425010C94250198
:100050000C9425010C9425010C9425010C94250188
:100060000C9425010C9425010C9425010C94250178
:100070000C9425010C9425010C9425010C94250168
:100080000C9425010C9425010C9425010C94250158
:100090000C9425010C9425010C9425010C94250148
:1000A0000C9425010C9425010C942501EF02EC021F
:1000B000E902E602E302E002DD02DA02D702D4023C
:1000C000D102CE02CB02C802C502C202BF02BC02EC
:1000D000B902B602B302B002AD02AA02A702A4029C
:1000E000A1029E029B029802950292028F028C024C
:1000F00089028602830280027D027A0277027402FC
:1001000071026E026B026802650262025F025C02AB
:1001100059025602530250024D024A02470244025B
:1001200041023E023B023802350232022F02000138
:10013000000062011200020000740143000300008D
:10014000B7010401030904BB011202030904CF0132
:100150000603030904D701080001C112018036011A
:1001600081361201000202000010C0167A0400015C
:100170000102030109024300020100C03209040028
:100180000001020201000524001001052401010103
:10019000042402060524060001070582031000401E
:1001A00009040100020A00000007050302400000E4
:1001B000070584024000000403090412034A002ECC
:1001C0000020004600690065006E00650000000622
:1001D000034D0032000000080334003100300000FD
:1001E00000207C20416E676C653A2000506F7420BF
:1001F00032204144433A2000207C20416E676C65E8
:100200003A2000506F742031204144433A200000CE
:1002100011241FBECFEFDAE0DEBFCDBF11E0A0E0BA
:10022000B1E0E6EBFFE002C005900D92A830B10707
:10023000D9F711E0A8E0B1E001C01D92AC30B107E0
:10024000E1F70E94AE060C94D9070C94000081E0FF
:100250008093D70080EA8093D80082E189BD09B4F9
:1002600000FEFDCF80E98093D8001092E00010924C
:100270000801109209018CE08093E20078940895BF
:100280008091080108959FB7F89480910801882310
:1002900039F083E08093E9008091E80085FD03C098
:1002A0009FBF8FEF08952091F1008091E80085FDB8
:1002B00003C08BE68093E8009FBF822F08959FB70D
:1002C000F89480910801882329F083E08093E90065
:1002D0008091F2009FBF089580910801882371F0FA
:1002E0009FB7F89483E08093E9002BE602C0209347
:1002F000E8008091E80085FDFACF9FBF0895482F60
:10030000809108018823D9F12FB7F89484E0809375
:10031000E90080910B01882341F08091E80085FD80
:1003200002C02FBF12C010920B019091E400975EA3
:1003300034E08091E80085FD13C02FBF8091E40078
:10034000891729F481E080930B018FEF0895809144
:1003500008018823A1F02FB7F8943093E900E9CF82
:100360004093F1008091E80085FD03C08AE380930B
:10037000E80085E080930A012FBF80E008958FEFA9
:100380000895282F80910801882351F09FB7F89491
:1003900084E08093E9008091E80085FD03C09FBF61
:1003A0008FEF08952093F1008091E80085FD03C050
:1003B0008AE38093E80085E080930A019FBF80E094
:1003C0000895CF93DF93EC0180910801882309F40D
:1003D0001CC13FB7F89484E08093E90080910B0141
:1003E000882309F407C18091E80085FD02C03FBF62
:1003F0000CC110920B01FEC09091E400975E8091B9
:10040000E80085FD13C03FBF8091E400891721F407
:1004100081E080930B01F9C080910801882309F4E1
:10042000F4C03FB7F8945093E900E9CF8091F2000F
:100430002A2F281B822F90E06817790708F4262FAF
:10044000822F90E08134910508F0C6C08A5A9F4FF0
:10045000FC01EE0FFF1F0590F491E02D09948991A6
:100460008093F10089918093F10089918093F1004C
:1004700089918093F10089918093F1008991809313
:10048000F10089918093F10089918093F100899125
:100490008093F10089918093F10089918093F1001C
:1004A00089918093F10089918093F10089918093E3
:1004B000F10089918093F10089918093F1008991F5
:1004C0008093F10089918093F10089918093F100EC
:1004D00089918093F10089918093F10089918093B3
:1004E000F10089918093F10089918093F1008991C5
:1004F0008093F10089918093F10089918093F100BC
:1005000089918093F10089918093F1008991809382
:10051000F10089918093F10089918093F100899194
:100520008093F10089918093F10089918093F1008B
:1005300089918093F10089918093F1008991809352
:10054000F10089918093F10089918093F100899164
:100550008093F10089918093F10089918093F1005B
:1005600089918093F10089918093F1008991809322
:10057000F10089918093F10089918093F100899134
:100580008093F10089918093F10089918093F1002B
:1005900089918093F10089918093F10089918093F2
:1005A000F10089918093F10089918093F100899104
:1005B0008093F10089918093F10089918093F100FB
:1005C00089918093F10089918093F10089918093C2
:1005D000F10089918093F10089918093F1008091DD
:1005E000E80085FD02C0B093E800621B71094093EA
:1005F0000A0104C054E0A0E4BAE345E061157105C6
:1006000009F0FACE3FBF80E001C08FEFDF91CF91BC
:1006100008959FB7F89480910A01882341F084E0FF
:100620008093E9008AE38093E80010920A019FBF5B
:1006300008958091040108958091050108958091A5
:1006400006010895809109010895382F9FB7F89405
:1006500080910801882339F022E02093E9008091FD
:10066000E80085FD03C09FBF8FEF089581EA809366
:10067000F10080E28093F1001092F1001092F100FD
:100680001092F1001092F1002093F1001092F1000D
:100690003093F1001092F1008AE38093E8009FBF4D
:1006A00080E008951F920F920FB60F9211248F933E
:1006B0009F938091E1001092E100982F83FF11C079
:1006C0001092E90081E08093EB001092EC0082E14F
:1006D0008093ED0088E08093F00010920801109262
:1006E000090192FF13C080910801882379F080915D
:1006F0000A01882359F0815080930A01882331F43C
:1007000084E08093E9008AE38093E8009F918F91D1
:100710000F900FBE0F901F9018951F920F920FB65B
:100720000F9211240F931F932F933F934F935F9337
:100730006F937F938F939F93AF93BF93EF93FF93A9
:100740001092E9008091E80083FF3CC14091F100E4
:100750003091F1008091F100682F70E02091F1005C
:10076000922F80E0682B792B8091F100A82FB0E0C8
:100770002091F100922F80E0A82BB92B1091F1006D
:100780000091F10082EF8093E800363009F05AC002
:1007900025E331E0A90145505040F9013797859193
:1007A00094918617970701F5FA01859194918A171C
:1007B0009B07D1F49A012E5F3F4FF9016591749127
:1007C0002E5F3F4FF9014491212F30E0902F80E0C0
:1007D000282B392B2F3F310519F010F02FEF30E087
:1007E000241758F4422F09C0295F3F4F495F5F4FDC
:1007F000F1E02F353F0789F6E5C05EEF8091E80014
:10080000282F30E0C90185709070892BB9F322FD43
:10081000DCC0342F413108F030E1232FCB0106C07A
:10082000FC010196E491E093F10021502223C1F7ED
:10083000630F711D431B5093E8004423F9F63031D8
:10084000E9F2C3C0353061F48EEF8093E800809107
:10085000E80080FFFCCF862F80688093E300B5C05E
:10086000393051F5442309F0ADC06093080110926E
:10087000090110920A018EEF8093E80088E591E06B
:1008800021E02093E900FC010196E491E093EB0064
:10089000EE2369F0AC014F5F5F4FFC0184918093C0
:1008A000EC00CA010196FA0134913093ED002F5FFC
:1008B000253039F78EE181C0383061F4403809F0D5
:1008C00081C08091E80080FFFCCF80910801809377
:1008D000F10050C0313289F4413A09F073C080917F
:1008E000E80080FFFCCFE0E0F1E081918093F1002F
:1008F00081E0E730F807C9F73DC03032A1F441325A
:1009000009F060C08091E80082FFFCCFE0E0F1E0F8
:100910008091F100819381E0E730F807C9F78BEF10
:100920008093E80027C0323251F4413209F04AC0C6
:10093000609309018091E80080FFFCCF1BC0332346
:10094000E9F48091E80080FFFCCF423811F080E0AC
:100950000DC0A093E9008091EB0090E025E0969512
:1009600087952A95E1F781701092E9008093F10054
:100970001092F1008EEF8093E80027C0313011F023
:10098000333001F54230F1F4672BE1F42A2F2F7751
:10099000822F81508430B0F48EEF8093E800209352
:1009A000E900333079F089E18093EB0081E090E059
:1009B00002C0880F991F2A95E2F78093EA001092EF
:1009C000EA0003C081E28093EB00FF91EF91BF91B9
:1009D000AF919F918F917F916F915F914F913F91D7
:1009E0002F911F910F910F900FBE0F901F90189590
:1009F0001F93CF93DF93EC01FE01219614911123F5
:100A000049F01A3019F48DE00E947F01812F0E9475
:100A10007F01F2CFDF91CF911F910895982F8A30F7
:100A200010F087E301C080E3890F0E947F010895E1
:100A30001F93182F82958F700E940E05812F8F7043
:100A40000E940E051F9108951F93182F892F0E9451
:100A50001805812F0E9418051F9108950E941805FE
:100A60000895EF92FF920F931F93DF93CF93CDB72B
:100A7000DEB72B970FB6F894DEBF0FBECDBF8E0149
:100A80000F5F1F4F2BE0F80111922A95E9F7A8019B
:100A90002AE030E00E947A073BE0E32EF12CEC0ED6
:100AA000FD1EF8018081882311F00E947F010F5FF5
:100AB0001F4F0E151F05A9F72B960FB6F894DEBF32
:100AC0000FBECDBFCF91DF911F910F91FF90EF909F
:100AD0000895EF92FF920F931F93DF93CF93CDB7BB
:100AE000DEB72B970FB6F894DEBF0FBECDBF8E01D9
:100AF0000F5F1F4F2BE0F80111922A95E9F7A8012B
:100B00002AE030E00E9446074CE0E42EF12CEC0E87
:100B1000FD1EF8018081882311F00E947F010F5F84
:100B20001F4F0E151F05A9F72B960FB6F894DEBFC1
:100B30000FBECDBFCF91DF911F910F91FF90EF902E
:100B40000895EF92FF920F931F93DF93CF9300D0FE
:100B500000D000D0CDB7DEB78E010F5F1F4F26E06B
:100B6000F80111922A95E9F7B8014AE050E00E9495
:100B70009F0756E0E52EF12CEC0EFD1EF80180815A
:100B8000882311F00E947F010F5F1F4F0E151F0574
:100B9000A9F726960FB6F894DEBF0FBECDBFCF9152
:100BA000DF911F910F91FF90EF900895EF92FF92C8
:100BB0000F931F93DF93CF93CDB7DEB727970FB671
:100BC000F894DEBF0FBECDBF8E010F5F1F4F27E031
:100BD000F80111922A95E9F7B8014AE050E00E9425
:100BE000250768E0E62EF12CEC0EFD1EF801808151
:100BF000882311F00E947F010F5F1F4F0E151F0504
:100C0000A9F727960FB6F894DEBF0FBECDBFCF91E0
:100C1000DF911F910F91FF90EF900895ECE7F0E0C6
:100C200080818F778083808180648083EAE7F0E031
:100C30008081846080838081816080838081826004
:100C400080838081806880830895582F883070F475
:100C500020917E0081E090E0052E02C0880F991F50
:100C60000A94E2F7282B20937E0010C040917D006B
:100C7000282F30E02850304081E090E002C0880FFB
:100C8000991F2A95E2F7482B40937D0080917C00C4
:100C90005770807F852B80937C0080917A008064E0
:100CA00080937A0080917A0086FDFCCF20917800B5
:100CB00030917900C9010895A0E0B0E0BC01CD01F8
:100CC00024EB30E040E050E00E94C9062FEF33E013
:100CD00040E050E00E94E806822F0895FF920F93B3
:100CE0001F9386E00E9425068C010E945C06F82E68
:100CF0008CEE91E00E94F804C8010E94D60581EEB6
:100D000091E00E94F8048F2D90E00E94D6058AE0C1
:100D10000E947F011F910F91FF900895FF920F9302
:100D20001F9387E00E9425068C010E945C06F82E26
:100D300083E092E00E94F804C8010E94D60588EF83
:100D400091E00E94F8048F2D90E00E94D6058AE081
:100D50000E947F011F910F91FF900895CF93DF9321
:100D600080E885BF85BF80936100109261000E947A
:100D70000E060E942701C0E9D1E00E948E060E9463
:100D80006E0688E893E1FE013197F1F70197D9F7F4
:100D9000F4CF629FD001739FF001829FE00DF11D9F
:100DA000649FE00DF11D929FF00D839FF00D749FE5
:100DB000F00D659FF00D9927729FB00DE11DF91F91
:100DC000639FB00DE11DF91FBD01CF0111240895EE
:100DD00097FB092E05260ED057FD04D014D00AD05B
:100DE000001C38F450954095309521953F4F4F4F5A
:100DF0005F4F0895F6F790958095709561957F4FB8
:100E00008F4F9F4F0895A1E21A2EAA1BBB1BFD0115
:100E10000DC0AA1FBB1FEE1FFF1FA217B307E407D9
:100E2000F50720F0A21BB30BE40BF50B661F771F31
:100E3000881F991F1A9469F7609570958095909511
:100E40009B01AC01BD01CF010895FB019F01E89416
:100E50004230C4F04532B4F44A3029F497FB1EF412
:100E6000909581959F4F642F77270E94C507805DDD
:100E70008A330CF0895D8193CB010097A1F716F4BA
:100E80005DE251931082C9010C94B507FA01CF932A
:100E9000FF93EF93223044F1253234F5C22FE894CA
:100EA000CA3049F497FB3EF4909580957095619512
:100EB0007F4F8F4F9F4F2C2F332744275527FF936A
:100EC000EF930E940307EF91FF91605D6A330CF08E
:100ED000695D6193B901CA016050704080409040E3
:100EE00051F716F4CDE2C19310828F919F91CF916B
:100EF0000C94B507FA01CF93FF93EF932230CCF017
:100F00002532BCF4C22F2C2F332744275527FF93BB
:100F1000EF930E940307EF91FF91605D6A330CF03D
:100F2000695D6193B901CA01605070408040904092
:100F300051F710828F919F91CF910C94B507FB01CF
:100F40009F01423074F0453264F4642F77270E9489
:100F5000C507805D8A330CF0895D8193CB010097D2
:100F6000A1F71082C9010C94B507DC01FC01672FC1
:100F700071917723E1F7329704C07C916D93708370
:100F80006291AE17BF07C8F30895AA1BBB1B51E1BE
:100F900007C0AA1FBB1FA617B70710F0A61BB70BE9
:100FA000881F991F5A95A9F780959095BC01CD018E
:060FB0000895F894FFCF44
:080FB60000E10000000008004A
:00000001FF
