:100000000C94F3000C9410010C9410010C9410014A
:100010000C9410010C9410010C9410010C9410011C
:100020000C9410010C9410010C943D030C94780373
:100030000C9410010C9410010C9410010C941001FC
:100040000C94F9050C9410010C9410010C941001FF
:100050000C9439060C9410010C9410010C941001AE
:100060000C9410010C9410010C9410010C941001CC
:100070000C9410010C9410010C9410010C941001BC
:100080000C9410010C9410010C9410010C941001AC
:100090000C9410010C9410010C9410010C9410019C
:1000A0000C9410010C9410010C941001DA02D70288
:1000B000D402D102CE02CB02C802C502C202BF02E4
:1000C000BC02B902B602B302B002AD02AA02A70294
:1000D000A402A1029E029B029802950292028F0244
:1000E0008C0289028602830280027D027A027702F4
:1000F000740271026E026B026802650262025F02A4
:100100005C0259025602530250024D024A02470253
:10011000440241023E023B023802350232022F0203
:100120002C0229022602230220021D021A020001CB
:10013000000062011200020000740143000300008D
:10014000B7010401030904BB011202030904CF0132
:100150000603030904D701080001C112018036011A
:1001600081361201000202000010C0167A0400015C
:100170000102030109024300020100C03209040028
:100180000001020201000524001001052401010103
:10019000042402060524060001070582031000401E
:1001A00009040100020A00000007050302400000E4
:1001B000070584024000000403090412034A002ECC
:1001C0000020004600690065006E00650000000622
:1001D000034D0032000000080334003100300000FD
:1001E0000020487A0A0011241FBECFEFDAE0DEBFFC
:1001F000CDBF11E0A0E0B1E0E8E0F2E102C005907F
:100200000D92AA30B107D9F711E0AAE0B1E001C020
:100210001D92A331B107E1F70E94D4060C940209A4
:100220000C94000081E08093D70080EA8093D8008E
:1002300082E189BD09B400FEFDCF80E98093D8003A
:100240001092E00010920A0110920B018CE0809352
:10025000E2007894089580910A0108959FB7F89478
:1002600080910A01882339F083E08093E90080912E
:10027000E80085FD03C09FBF8FEF08952091F10036
:100280008091E80085FD03C08BE68093E8009FBF66
:10029000822F08959FB7F89480910A01882329F04E
:1002A00083E08093E9008091F2009FBF08958091E0
:1002B0000A01882371F09FB7F89483E08093E900E6
:1002C0002BE602C02093E8008091E80085FDFACF7C
:1002D0009FBF0895482F80910A018823D9F12FB735
:1002E000F89484E08093E90080910D01882341F027
:1002F0008091E80085FD02C02FBF12C010920D0151
:100300009091E400975E34E08091E80085FD13C091
:100310002FBF8091E400891729F481E080930D01BB
:100320008FEF089580910A018823A1F02FB7F894E8
:100330003093E900E9CF4093F1008091E80085FD1A
:1003400003C08AE38093E80085E080930C012FBF0F
:1003500080E008958FEF0895282F80910A01882367
:1003600051F09FB7F89484E08093E9008091E80011
:1003700085FD03C09FBF8FEF08952093F10080910A
:10038000E80085FD03C08AE38093E80085E0809360
:100390000C019FBF80E00895CF93DF93EC01809123
:1003A0000A01882309F41CC13FB7F89484E08093C4
:1003B000E90080910D01882309F407C18091E800CC
:1003C00085FD02C03FBF0CC110920D01FEC090918F
:1003D000E400975E8091E80085FD13C03FBF8091E7
:1003E000E400891721F481E080930D01F9C0809128
:1003F0000A01882309F4F4C03FB7F8945093E90048
:10040000E9CF8091F2002A2F281B822F90E06817F5
:10041000790708F4262F822F90E08134910508F0A7
:10042000C6C08A5A9F4FFC01EE0FFF1F0590F49142
:10043000E02D099489918093F10089918093F100D6
:1004400089918093F10089918093F1008991809343
:10045000F10089918093F10089918093F100899155
:100460008093F10089918093F10089918093F1004C
:1004700089918093F10089918093F1008991809313
:10048000F10089918093F10089918093F100899125
:100490008093F10089918093F10089918093F1001C
:1004A00089918093F10089918093F10089918093E3
:1004B000F10089918093F10089918093F1008991F5
:1004C0008093F10089918093F10089918093F100EC
:1004D00089918093F10089918093F10089918093B3
:1004E000F10089918093F10089918093F1008991C5
:1004F0008093F10089918093F10089918093F100BC
:1005000089918093F10089918093F1008991809382
:10051000F10089918093F10089918093F100899194
:100520008093F10089918093F10089918093F1008B
:1005300089918093F10089918093F1008991809352
:10054000F10089918093F10089918093F100899164
:100550008093F10089918093F10089918093F1005B
:1005600089918093F10089918093F1008991809322
:10057000F10089918093F10089918093F100899134
:100580008093F10089918093F10089918093F1002B
:1005900089918093F10089918093F10089918093F2
:1005A000F10089918093F10089918093F100899104
:1005B0008093F1008091E80085FD02C0B093E800CF
:1005C000621B710940930C0104C054E0A0E4BAE33B
:1005D00045E06115710509F0FACE3FBF80E001C02A
:1005E0008FEFDF91CF9108959FB7F89480910C0120
:1005F000882341F084E08093E9008AE38093E80057
:1006000010920C019FBF089580910401089580917C
:100610000501089580910601089580910B010895C8
:10062000382F9FB7F89480910A01882339F022E08F
:100630002093E9008091E80085FD03C09FBF8FEF04
:10064000089581EA8093F10080E28093F100109296
:10065000F1001092F1001092F1001092F10020933D
:10066000F1001092F1003093F1001092F1008AE352
:100670008093E8009FBF80E008951F920F920FB60D
:100680000F9211248F939F938091E1001092E100CB
:10069000982F83FF11C01092E90081E08093EB0056
:1006A0001092EC0082E18093ED0088E08093F000EE
:1006B00010920A0110920B0192FF13C080910A015F
:1006C000882379F080910C01882359F08150809320
:1006D0000C01882331F484E08093E9008AE380935D
:1006E000E8009F918F910F900FBE0F901F9018956B
:1006F0001F920F920FB60F9211240F931F932F93F7
:100700003F934F935F936F937F938F939F93AF9399
:10071000BF93EF93FF931092E9008091E80083FF6D
:100720003CC14091F1003091F1008091F100682FBF
:1007300070E02091F100922F80E0682B792B80915E
:10074000F100A82FB0E02091F100922F80E0A82BBB
:10075000B92B1091F1000091F10082EF8093E80035
:10076000363009F05AC025E331E0A9014550504028
:10077000F9013797859194918617970701F5FA014A
:10078000859194918A179B07D1F49A012E5F3F4F70
:10079000F901659174912E5F3F4FF9014491212F2A
:1007A00030E0902F80E0282B392B2F3F310519F0B6
:1007B00010F02FEF30E0241758F4422F09C0295FC2
:1007C0003F4F495F5F4FF1E02F353F0789F6E5C0A6
:1007D0005EEF8091E800282F30E0C90185709070AD
:1007E000892BB9F322FDDCC0342F413108F030E110
:1007F000232FCB0106C0FC010196E491E093F100A8
:1008000021502223C1F7630F711D431B5093E80051
:100810004423F9F63031E9F2C3C0353061F48EEF8C
:100820008093E8008091E80080FFFCCF862F8068ED
:100830008093E300B5C0393051F5442309F0ADC0D1
:1008400060930A0110920B0110920C018EEF8093BD
:10085000E80088E591E021E02093E900FC010196A1
:10086000E491E093EB00EE2369F0AC014F5F5F4F42
:10087000FC0184918093EC00CA010196FA01349145
:100880003093ED002F5F253039F78EE181C038308D
:1008900061F4403809F081C08091E80080FFFCCF0E
:1008A00080910A018093F10050C0313289F4413ABD
:1008B00009F073C08091E80080FFFCCFE0E0F1E038
:1008C00081918093F10081E0E730F807C9F73DC0DE
:1008D0003032A1F4413209F060C08091E80082FF1B
:1008E000FCCFE0E0F1E08091F100819381E0E7301E
:1008F000F807C9F78BEF8093E80027C0323251F434
:10090000413209F04AC060930B018091E80080FFFA
:10091000FCCF1BC03323E9F48091E80080FFFCCFBB
:10092000423811F080E00DC0A093E9008091EB0007
:1009300090E025E0969587952A95E1F781701092D1
:10094000E9008093F1001092F1008EEF8093E800AF
:1009500027C0313011F0333001F54230F1F4672B0C
:10096000E1F42A2F2F77822F81508430B0F48EEF5C
:100970008093E8002093E900333079F089E1809397
:10098000EB0081E090E002C0880F991F2A95E2F702
:100990008093EA001092EA0003C081E28093EB00AA
:1009A000FF91EF91BF91AF919F918F917F916F9147
:1009B0005F914F913F912F911F910F910F900FBE1B
:1009C0000F901F9018951F93CF93DF93EC01FE01BA
:1009D00021961491112349F01A3019F48DE00E94E8
:1009E0006A01812F0E946A01F2CFDF91CF911F919E
:1009F0000895982F8A3010F087E301C080E3890FB3
:100A00000E946A0108951F93182F82958F700E948B
:100A1000F904812F8F700E94F9041F9108951F938C
:100A2000182F892F0E940305812F0E9403051F9113
:100A300008950E9403050895EF92FF920F931F936C
:100A4000DF93CF93CDB7DEB72B970FB6F894DEBF09
:100A50000FBECDBF8E010F5F1F4F2BE0F80111922B
:100A60002A95E9F7A8012AE030E00E9481083BE0DE
:100A7000E32EF12CEC0EFD1EF8018081882311F08D
:100A80000E946A010F5F1F4F0E151F05A9F72B96D5
:100A90000FB6F894DEBF0FBECDBFCF91DF911F918F
:100AA0000F91FF90EF900895EF92FF920F931F9395
:100AB000DF93CF93CDB7DEB72B970FB6F894DEBF99
:100AC0000FBECDBF8E010F5F1F4F2BE0F8011192BB
:100AD0002A95E9F7A8012AE030E00E944D084CE091
:100AE000E42EF12CEC0EFD1EF8018081882311F01C
:100AF0000E946A010F5F1F4F0E151F05A9F72B9665
:100B00000FB6F894DEBF0FBECDBFCF91DF911F911E
:100B10000F91FF90EF900895EF92FF920F931F9324
:100B2000DF93CF9300D000D000D0CDB7DEB78E01D9
:100B30000F5F1F4F26E0F80111922A95E9F7B801DF
:100B40004AE050E00E94A60856E0E52EF12CEC0E9B
:100B5000FD1EF8018081882311F00E946A010F5F59
:100B60001F4F0E151F05A9F726960FB6F894DEBF86
:100B70000FBECDBFCF91DF911F910F91FF90EF90EE
:100B80000895EF92FF920F931F93DF93CF93CDB70A
:100B9000DEB727970FB6F894DEBF0FBECDBF8E012C
:100BA0000F5F1F4F27E0F80111922A95E9F7B8016E
:100BB0004AE050E00E942C0868E0E62EF12CEC0E92
:100BC000FD1EF8018081882311F00E946A010F5FE9
:100BD0001F4F0E151F05A9F727960FB6F894DEBF15
:100BE0000FBECDBFCF91DF911F910F91FF90EF907E
:100BF00008951F920F920FB60F9211242F933F93D7
:100C00008F939F93809110019091110190930F0108
:100C100080930E018091860090918700909311013E
:100C20008093100180910E0190910F01892BB1F0FA
:100C3000209110013091110180910E0190910F01CE
:100C4000809110019091110120910E0130910F01BE
:100C5000821B930B9093080180930701109212015D
:100C60009F918F913F912F910F900FBE0F901F90EA
:100C700018951F920F920FB60F9211248F9381E057
:100C8000809312018F910F900FBE0F901F901895B7
:100C9000EF92FF920F931F93F89460910701709168
:100CA0000801789480911201882339F081E090E066
:100CB000909308018093070149C06115710509F4FB
:100CC00047C080E090E00E9476079B01AC0160E0A5
:100CD00074E284E797E40E94DD067B018C010E94A8
:100CE0004507DC01CB010E94C10581EE91E00E9425
:100CF000E304C801B70120E030E040EC51E40E9479
:100D00002808181664F4C801B70120E030E040ED6F
:100D100051E40E94D906882314F4469A18C0C801E9
:100D2000B70120E030E045E254E40E94280818169C
:100D30006CF4C801B70120E030E446E254E40E94BC
:100D4000D90688231CF44698589A02C046985898A9
:100D50001F910F91FF90EF90089580E885BF85BFA8
:100D600080936100109261000E9412010E942B0189
:100D70008823E1F33E9A509A54985C9A80918100BE
:100D800084608093810080918100806480938100E1
:100D900080916F00806280936F0080916F0081600E
:100DA00080936F00789408950E94AD060E944806D3
:100DB000FDCFD9D008F481E008950CD00FC107D140
:100DC00040F0FED030F021F45F3F19F0F0C0511137
:100DD00039C1F3C014D198F39923C9F35523B1F362
:100DE000951B550BBB27AA2762177307840738F09A
:100DF0009F5F5F4F220F331F441FAA1FA9F333D0F9
:100E00000E2E3AF0E0E830D091505040E695001CAC
:100E1000CAF729D0FE2F27D0660F771F881FBB1F68
:100E2000261737074807AB07B0E809F0BB0B802D42
:100E3000BF01FF2793585F4F2AF09E3F510568F08E
:100E4000B6C000C15F3FECF3983EDCF38695779522
:100E50006795B795F7959F5FC9F7880F911D969590
:100E6000879597F90895E1E0660F771F881FBB1FEC
:100E7000621773078407BA0720F0621B730B840B99
:100E8000BA0BEE1F88F7E095089504D06894B1116D
:100E9000D9C00895BCD088F09F5790F0B92F9927FA
:100EA000B751A0F0D1F0660F771F881F991F1AF075
:100EB000BA95C9F712C0B13081F0C3D0B1E008953E
:100EC000C0C0672F782F8827B85F39F0B93FCCF3BF
:100ED000869577956795B395D9F73EF4909580956B
:100EE000709561957F4F8F4F9F4F0895E89409C08B
:100EF00097FB3EF490958095709561957F4F8F4F4D
:100F00009F4F9923A9F0F92F96E9BB279395F69562
:100F1000879577956795B795F111F8CFFAF4BB0FE0
:100F200011F460FF1BC06F5F7F4F8F4F9F4F16C044
:100F3000882311F096E911C0772321F09EE8872FCE
:100F4000762F05C0662371F096E8862F70E060E08A
:100F50002AF09A95660F771F881FDAF7880F969503
:100F6000879597F90895990F0008550FAA0BE0E8A7
:100F7000FEEF16161706E807F907C0F0121613065B
:100F8000E407F50798F0621B730B840B950B39F49B
:100F90000A2661F0232B242B252B21F408950A2601
:100FA00009F4A140A6958FEF811D811D089597F941
:100FB0009F6780E870E060E008959FEF80EC0895FF
:100FC00000240A9416161706180609060895002428
:100FD0000A9412161306140605060895092E0394A2
:100FE000000C11F4882352F0BB0F40F4BF2B11F416
:100FF00060FF04C06F5F7F4F8F4F9F4F089557FD75
:101000009058440F551F59F05F3F71F04795880F76
:1010100097FB991F61F09F3F79F08795089512160D
:1010200013061406551FF2CF4695F1DF08C01616B9
:1010300017061806991FF1CF86957105610508946A
:101040000895E894BB2766277727CB0197F9089581
:101050008ADF08F48FEF0895FB019F01E894423086
:10106000C4F04532B4F44A3029F497FB1EF490954D
:1010700081959F4F642F77270E94CC08805D8A332B
:101080000CF0895D8193CB010097A1F716F45DE226
:1010900051931082C9010C94BC08FA01CF93FF93BD
:1010A000EF93223044F1253234F5C22FE894CA3050
:1010B00049F497FB3EF490958095709561957F4F2C
:1010C0008F4F9F4F2C2F332744275527FF93EF93A4
:1010D0000E94E008EF91FF91605D6A330CF0695D5A
:1010E0006193B901CA01605070408040904051F74F
:1010F00016F4CDE2C19310828F919F91CF910C9401
:10110000BC08FA01CF93FF93EF932230CCF0253245
:10111000BCF4C22F2C2F332744275527FF93EF937E
:101120000E94E008EF91FF91605D6A330CF0695D09
:101130006193B901CA01605070408040904051F7FE
:1011400010828F919F91CF910C94BC08FB019F015D
:10115000423074F0453264F4642F77270E94CC0843
:10116000805D8A330CF0895D8193CB010097A1F7F4
:101170001082C9010C94BC08DC01FC01672F71913D
:101180007723E1F7329704C07C916D93708362916D
:10119000AE17BF07C8F30895AA1BBB1B51E107C0D8
:1011A000AA1FBB1FA617B70710F0A61BB70B881FF7
:1011B000991F5A95A9F780959095BC01CD01089586
:1011C000A1E21A2EAA1BBB1BFD010DC0AA1FBB1F4B
:1011D000EE1FFF1FA217B307E407F50720F0A21BBD
:1011E000B30BE40BF50B661F771F881F991F1A942A
:1011F00069F760957095809590959B01AC01BD0154
:08120000CF010895F894FFCF1F
:0A12080000E10000000008010000F2
:00000001FF
